:0100000000FF
:0100010002FC
:0100020004F9
:0100030006F6
:0100040008F3
:0100050019E1
:010006001ADF
:010007001BDD
:0100080012E5
:0100090013E3
:01000A0014E1
:01000B0015DF
:01000C0016DD
:01000D0017DB
:01000E0000F1
:01000F0000F0
:0100100000EF
:0100110000EE
:0100120000ED
:0100130000EC
:010014000AE1
:010015000BDF
:010016000CDD
:010017000DDB
:010018001FC8
:0100190015D1
:01001A000BDA
:01001B0001E3
:01001C000CD7
:01001D0016CC
:01001E0017CA
:01001F000DD3
:010020000AD5
:010021000BD3
:010022000CD1
:010023000DCF
:0100240000DB
:0100250000DA
:0100260000D9
:0100270000D8
:0100280000D7
:0100290000D6
:01002A0000D5
:01002B0000D4
:01002C000EC5
:01002D000FC3
:01002E0010C1
:01002F0011BF
:0100300000CF
:0100310000CE
:0100320000CD
:0100330000CC
:0100340000CB
:0100350000CA
:0100360000C9
:0100370000C8
:0100380000C7
:0100390000C6
:01003A0000C5
:01003B0000C4
:01003C0000C3
:01003D0000C2
:01003E0002BF
:01003F0003BD
:0100400018A7
:0100410019A5
:010042001AA3
:010043001BA1
:010044001C9F
:010045001D9D
:010046001E9B
:010047001F99
:0100480000B7
:0100490000B6
:01004A0000B5
:01004B0000B4
:01004C0000B3
:01004D0000B2
:01004E0000B1
:01004F0000B0
:0100500000AF
:0100510000AE
:0100520000AD
:0100530000AC
:0100540000AB
:0100550000AA
:0100560000A9
:0100570000A8
:0100580000A7
:0100590000A6
:01005A0000A5
:01005B0000A4
:01005C0000A3
:01005D0000A2
:01005E0000A1
:01005F0000A0
:01006000009F
:01006100009E
:01006200009D
:01006300009C
:01006400009B
:01006500009A
:010066000099
:010067000098
:010068000097
:010069000096
:01006A000095
:01006B000094
:01006C000093
:01006D000092
:01006E000091
:01006F000090
:01007000008F
:01007100008E
:01007200008D
:01007300008C
:01007400008B
:01007500008A
:010076000089
:010077000088
:010078000087
:010079000086
:01007A000085
:01007B000084
:01007C000083
:01007D000082
:01007E000081
:01007F000080
:00000001FF
